:100000000EC01DC01CC01BC01AC019C018C017C02C
:1000100016C015C014C013C012C011C010C01124E6
:100020001FBECFE5D2E0DEBFCDBF20E0A0E6B0E04E
:1000300001C01D92AA3AB207E1F7F5D160C4E0CF42
:10004000C198B99A0895B998C198089586B38170F6
:10005000089586B383FB882780F90895FADF90918D
:100060006100981305C010926000809161000895AE
:10007000909160009F5F909360009530B0F3809303
:100080006100F1CFF89488E198E00FB6F894A89554
:1000900081BD0FBE91BDFFCF682F70E080E890E07A
:1000A000861B970BEED3BC0190E080E029ED30E099
:1000B00040E050E0F7D3DC01CB012CE0B695A795EA
:1000C000979587952A95D1F78A5D0895C29A2FEF63
:1000D00081EE94E0215080409040E1F700C00000A4
:1000E000C2980895C4982FEF81EE94E0215080408B
:1000F0009040E1F700C00000C49A0895CF93DF93C9
:10010000A8DFC8E7D0E0811104C080E0DF91CF9183
:1001100008959FDF8823C9F38FE19EE40197F1F7EB
:1001200000C00000A8952197A1F781E0EFCFCF9301
:10013000DF93E82FF0E0CF0169EE70E0A2D3CFEFBC
:10014000D0E0BE01C8D3262FCF0162E370E099D37F
:10015000BE01C1D3A2E6B0E0FD012083218362830A
:10016000339680E0EA3AF807C1F73FB7F89498B3BE
:10017000926028B32D7FB99A80E0AA3AB80751F46B
:100180003FBF8FEE90E00197F1F700C00000DF91D4
:10019000CF9108958D9148E098BB000000C087FF83
:1001A00028BB880F00C000C000C028BB000000C0F2
:1001B0004A9591F7E1CFEF92FF921F93CF93DF9390
:1001C000182F8111C29AD0E0C0E030E8E32EF12C64
:1001D000C7018C1B9D0BBE0154D324E096958795D7
:1001E0002A95E1F7A4DF2FEF89EF90E021508040BE
:1001F0009040E1F700C00000A895112321F0C53020
:10020000D10509F4C2982196C034D10509F78FEFC2
:100210008EDFCEEF8C2F8BDF8FE59DE60197F1F718
:1002200000C00000A895C150C63DA1F7C8ED8C2FB5
:100230007EDF8FE79BEB0197F1F700C00000A895E8
:10024000CF5FA9F78FEFDF91CF911F91FF90EF90D4
:100250006ECFCF93DF93CEEF8C2F69DF8FE99CE8D1
:100260000197F1F700C00000A895C150C53EA1F765
:10027000C7EE8C2F5CDF8FEB9DE50197F1F700C097
:100280000000A895CF5FA9F78FEF51DFD0E0C0E065
:10029000CE01BE01F6D224E0969587952A95E1F726
:1002A000809545DF9FEF29EF80E09150204080400E
:1002B000E1F700C00000A8952196C034D10541F7B0
:1002C00080E0DF91CF9133CFCF93DF93C82FD62F2C
:1002D000C03421F48FEFDF91CF9129CF8C2FDCDE5A
:1002E00026DF8D2F815028F4A895C03448F4CF5FC5
:1002F000EFCFEFE9FFE03197F1F700C00000F2CF58
:10030000C150E6CF2F923F924F925F926F927F92B1
:100310008F929F92AF92BF92CF92DF92EF92FF9215
:100320000F931F93CF93DF934B015C01342E8EDE2E
:10033000282E412C512C320110E000E0C12CD12C90
:100340007601C0E48BDED82F8823C1F068E08C2FC3
:10035000BBDFD1E08D2FDF91CF911F910F91FF90E7
:10036000EF90DF90CF90BF90AF909F908F907F9055
:100370006F905F904F903F902F9008958C2F8CDE60
:10038000D6DE2FEF8FE891E0215080409040E1F7DA
:1003900000C00000A89520E2C20ED11CE11CF11C97
:1003A00080E2480E511C611C711CC814D904EA0477
:1003B000FB0480F64BDED82F8823F1F0005E1F4F40
:1003C000083893E1190708F05DDE332041F1211070
:1003D00017C028ECC2162FEAD206E104F104F8F0A7
:1003E00088EB48168BE058066104710448F06EDE15
:1003F000412C512C320113C010E000E0332079F081
:1004000020E9C2162FE5D20621E0E206F10438F019
:1004100090E3491695E759066104710440F7CF5FF0
:10042000CF772D2E8FCF88E199E20FB6F894A8955B
:1004300081BD0FBE91BD2FEF80E792E0215080403B
:100440009040E1F700C00000A89503DE80936100B2
:1004500010926000B39B84C084E187BB18BA2FEF71
:100460008DE399E4215080409040E1F700C0000006
:10047000A895D0E0C0E0EADD182F8111BEC02FEFB3
:1004800080E792E0215080409040E1F700C00000FA
:10049000A895DCDD882309F4C2C0D0E0C0E0D6DD39
:1004A000882309F4D2C0C03D97E0D90709F0C0C045
:1004B000C49ACCDD982EB12CA12CC12CD12C760164
:1004C000D0E0C0E0CBDD8111C5C081E0C4988823B5
:1004D00081F2B6DDC0E090E4E92EF12C8C2FDCDD5A
:1004E00026DE8FEF9FE821E0815090402040E1F729
:1004F00000C00000A895CF5FCF7781E0E81AF1082F
:1005000069F760E28C2FE0DEA4DED0E0C0E0C12C11
:10051000D12C76018FE19EE40197F1F700C0000035
:10052000A89595E0C90ED11CE11CF11C8FDD882334
:1005300009F452C12596C83823E1D20708F03BC020
:10054000111107C0C43F81E0D80718F086E2EFDD43
:1005500011E07FDD882309F48BC1B12CA12C4EC1A1
:1005600086E187BB18BA6CDD80E0E1DD2FEF8DE31B
:1005700099E4215080409040E1F700C00000A89528
:1005800080E019DE40E060E97FE581E090E0BADEDE
:10059000811116C1F0C0B2DD811112C18FE19EE45C
:1005A0000197F1F700C00000A8952196C03D97E0A3
:1005B000D90709F0E3C066DDA1DD811101C18FE13A
:1005C0009EE40197F1F700C00000A895219709F07B
:1005D000E4C080E0ACDDDFC091DD8111F1C08FE1CE
:1005E0009EE40197F1F700C00000A8952596DBC0B6
:1005F000C43FD14009F0CFC0DFC030DD882309F40B
:100600005EC08FE19EE40197F1F700C00000A8955D
:100610002196C03D97E0D90709F02DCFCCCF1EDD44
:10062000882309F44CC08FE19EE40197F1F72ECFA7
:1006300015DD882309F443C08FE19EE40197F1F7AB
:1006400000C00000A89525962ACFC03DD74009F0EC
:1006500020CF2ECF8FEF90E722E0815090402040B6
:10066000E1F700C00000A89582E3C80ED11CE11C90
:10067000F11C97E5A91692E0B906F9F0E7DC082F1E
:10068000882349F0E296C83823E1D20708F093CFD7
:10069000911003C009C0D0E0C0E080E1C81687E235
:1006A000D806E104F10420F01DDDC12CD12C760127
:1006B0009FEFA91AB90A902E05CF80E007CFC0DCC2
:1006C000B12CA12CC12CD12C7601C0E08C2FE4DC04
:1006D0002EDD2FEF8FE891E0215080409040E1F730
:1006E00000C00000A89520E2C20ED11CE11CF11C44
:1006F000CF5FCF77ABDC882381F080E2A80EB11CFE
:1007000098E8A91693E1B90608F055CFA2DC882332
:1007100009F458C010E000E019C0B12CA12CF6CFAC
:100720008C2FBADC04DD2FEF8FE891E02150804060
:100730009040E1F700C00000A895005E1F4F20E246
:10074000C20ED11CE11CF11CCF5FCF7782DC882365
:1007500041F0003682E0180719F768E08C2FB4DD0D
:100760002FC0083592E01907C0F70C33110550F17E
:1007700060E28C2FA9DD6DDDD0E0C0E067DC811187
:100780000ACF2FEF80E792E0215080409040E1F7C0
:1007900000C00000A895C8ECD0E058DC882309F41C
:1007A0000BCFD0E0C0E052DC882309F421CFC43F56
:1007B00091E0D90709F010CFA1DC882309F450C0DB
:1007C00042DC57CE20ECC21624EDD20621E0E20630
:1007D000F10408F47BCFCCCFD0E0C0E0BACE8FE1FB
:1007E0009EE40197F1F700C00000A89595E0A90EDE
:1007F000B11C25E0C20ED11CE11CF11C2ADC8823AF
:1008000031F088E5A81682E0B80649F7B5CF98E53B
:10081000A91692E0B90609F4AFCF2CE3A216B104F1
:1008200038F180E9E82EFF24F3948FE19EE40197EC
:10083000F1F700C00000A89511110BC007DC882358
:1008400041F02596C43F91E0D90718F086E26FDCAD
:1008500011E021E0E21AF10841F7112309F48CCFED
:1008600081E0A9DC41E060EE73E984E090E08FCEA6
:1008700080E6C8168AEED806E104F10408F44ACEF0
:10088000ECCF0024552704C0080E591F880F991F6C
:10089000009729F076956795B8F37105B9F7802D23
:1008A000952F0895EE27FF27AA27BB2708C0A20F80
:1008B000B31FE41FF51F220F331F441F551F9695CA
:1008C00087957795679598F37040A9F7009799F702
:1008D000BD01CF010895AA1BBB1B51E107C0AA1F90
:1008E000BB1FA617B70710F0A61BB70B881F991FD1
:1008F0005A95A9F780959095BC01CD010895F8947B
:02090000FFCF27
:00000001FF
