:100000000EC01DC01CC01BC01AC019C018C017C02C
:1000100016C015C014C013C012C011C010C01124E6
:100020001FBECFE5D2E0DEBFCDBF20E0A0E6B0E04E
:1000300001C01D92AA3AB207E1F7E7D1C9C3E0CFE8
:10004000C198B99A0895B998C198089586B38170F6
:10005000089586B383FB882780F9909161009813F7
:1000600005C0109260008091610008959091600039
:100070009F5F909360009530B0F380936100F1CF63
:10008000F89488E198E00FB6F894A89581BD0FBE6A
:1000900091BDFFCF682F70E080E890E0861B970B42
:1000A00059D3BC0190E080E02FEE30E040E050E01A
:1000B00062D3DC01CB012CE0B695A7959795879587
:1000C0002A95D1F7805F0895C29A2FEF81EE94E0D0
:1000D000215080409040E1F700C00000C298089590
:1000E000C4982FEF81EE94E0215080409040E1F7DA
:1000F00000C00000C49A0895CF93DF93E82FF0E08A
:10010000CF0169EE70E026D3CFEFD0E0BE014CD333
:10011000262FCF0162E370E01DD3BE0145D3A2E6D6
:10012000B0E0FD01208321836283339680E0EA3AC8
:10013000F807C1F73FB7F89498B3926028B32D7FC2
:10014000B99A80E0AA3AB80751F43FBF8FEE90E029
:100150000197F1F700C00000DF91CF9108958D91D4
:1001600048E098BB000000C087FF28BB880F00C094
:1001700000C000C028BB000000C04A9591F7E1CF45
:10018000EF92FF921F93CF93DF93182F8111C29AA2
:10019000D0E0C0E030E8E32EF12CC7018C1B9D0BB2
:1001A000BE01D8D224E0969587952A95E1F7A4DF81
:1001B0002FEF89EF90E0215080409040E1F700C0A0
:1001C0000000A895112321F0C530D10509F4C2988B
:1001D0002196C034D10509F78FEF8EDFCEEF8C2F3B
:1001E0008BDF8FE59DE60197F1F700C00000A89531
:1001F000C150C63DA1F7C8ED8C2F7EDF8FE79BEB8A
:100200000197F1F700C00000A895CF5FA9F78FEF25
:10021000DF91CF911F91FF90EF906ECFCF93DF933F
:10022000CEEF8C2F69DF8FE99CE80197F1F700C0D2
:100230000000A895C150C53EA1F7C7EE8C2F5CDF2A
:100240008FEB9DE50197F1F700C00000A895CF5F07
:10025000A9F78FEF51DFD0E0C0E0CE01BE017AD226
:1002600024E0969587952A95E1F7809545DF9FEFE5
:1002700029EF80E0915020408040E1F700C000006D
:10028000A8952196C034D10541F780E0DF91CF9148
:1002900033CF2F923F924F925F926F927F928F92C5
:1002A0009F92AF92BF92CF92DF92EF92FF920F9305
:1002B0001F93CF93DF932B013C01342EC7DE282EF2
:1002C000C12CD12C7601D0E0C0E0812C912C5401BE
:1002D00010E4BFDE082F8823B9F08FEF0DDF01E0B7
:1002E000802FDF91CF911F910F91FF90EF90DF90C2
:1002F000CF90BF90AF909F908F907F906F905F90C6
:100300004F903F902F900895812FC4DEF5DE2FEFA0
:100310008FE891E0215080409040E1F700C000005C
:10032000A89520E2820E911CA11CB11C80E2C80E8F
:10033000D11CE11CF11C84149504A604B70480F6BA
:1003400085DE082F8823E9F0A096C83893E1D90705
:1003500008F096DE332041F1211017C028EC8216F8
:100360002FEA9206A104B104F8F088EBC8168BE0DE
:10037000D806E104F10448F0A7DEC12CD12C7601A7
:1003800013C0D0E0C0E0332079F020E982162FE5D9
:10039000920621E0A206B10438F090E3C91695E771
:1003A000D906E104F10440F71F5F1F77202E91CF9B
:1003B000CF93C82FC03419F48FEFCF919DCE8C2FDF
:1003C00069DE9ADE2FEF8FE891E021508040904067
:1003D000E1F700C00000A895C03410F4CF5FEACF69
:1003E000C150E8CFB39902C080E0089588E790E05B
:1003F000B39BFACFEFE1FEE43197F1F700C00000C4
:10040000A8950197A9F781E0089588E199E20FB6D0
:10041000F894A89581BD0FBE91BD2FEF80E792E0C3
:10042000215080409040E1F700C00000A89586B3BD
:1004300083FB882780F98093610010926000B39B52
:1004400053C084E187BB18BA2FEF8DE399E42150A4
:1004500080409040E1F700C00000A89510E000E067
:10046000F5DDC82F8111ADC02FEF80E792E021505C
:1004700080409040E1F700C00000A895E7DD8823A8
:1004800009F4B2C010E000E0E1DD882309F4C3C044
:10049000003D97E0190709F0B0C0C49AD7DD982E47
:1004A000B12CA12CC12CD12C760110E000E0D1DDC3
:1004B0008111B6C081E0C498882381F2C1DD00E4D7
:1004C00010E08C2FE7DD18DE9FEF2FE881E09150E0
:1004D00020408040E1F700C00000A895CF5FCF77B3
:1004E0000150110971F729C186E187BB18BAA8DD4F
:1004F00080E002DE2FEF8DE399E4215080409040B0
:10050000E1F700C00000A89580E03ADE40E060E935
:100510007FE581E090E0BDDE81111FC07FDE10E04D
:1005200000E094DD81111BC02FEF80E792E02150A5
:1005300080409040E1F700C00000A89587DD882347
:10054000F9F010E000E082DD882379F1043F91E0CA
:100550001907F1F447DF882361F175DD7FCF42DFB2
:100560008111FBCF8FE19EE40197F1F700C00000FD
:10057000A8950F5F1F4F003D97E0190791F680DDAA
:1005800031DF8111EACF8FE19EE40197F1F7D3CFFC
:1005900029DF8111E2CF8FE19EE40197F1F700C0DE
:1005A0000000A8950B5F1F4FCECF043F114031F6DE
:1005B000D1CF81E0E5DD41E060EE73E984E090E0D9
:1005C000AACF47DD882309F461C08FE19EE401973B
:1005D000F1F700C00000A8950F5F1F4F003D97E0A6
:1005E000190709F03DCFCBCF34DD882309F44EC085
:1005F0008FE19EE40197F1F73ECF2BDD882309F4CC
:1006000045C08FE19EE40197F1F700C00000A89576
:100610000B5F1F4F39CF003D174009F02FCF3DCF63
:100620008FEF90E722E0815090402040E1F700C03A
:100630000000A89582E3C80ED11CE11CF11C97E5CF
:10064000A91692E0B90601F101DDD82F882351F0F7
:100650000E5C1F4F083823E1120708F090CF91106D
:1006600003C009C010E000E080E1C81687E2D806A8
:10067000E104F10420F034DDC12CD12C76019FEF90
:10068000A91AB90A9D2E13CF80E015CFD9DC10E04E
:1006900000E0C12CD12C7601C0E08C2FFBDC2CDDDE
:1006A0002FEF8FE891E0215080409040E1F700C0AB
:1006B0000000A89520E2C20ED11CE11CF11CCF5F06
:1006C000CF77C4DC882361F0005E1F4F083883E1D8
:1006D000180708F054CFB39B33C0B12CA12C1AC01B
:1006E00010E000E0F8CF8C2FD5DC06DD9FEF2FE87F
:1006F00081E0915020408040E1F700C00000A895C3
:1007000090E2A90EB11C20E2C20ED11CE11CF11C2A
:10071000CF5FCF77B39B08C080E6A81682E0B8060B
:1007200011F78FEFE9DC19CF98E5A91692E0B90629
:10073000C0F72CE3A216B10418F08C2F39DEEECEF0
:1007400080ECC81684EDD80681E0E806F10408F4D0
:10075000A4CFF3CF0024552704C0080E591F880FDB
:10076000991F009729F076956795B8F37105B9F749
:10077000802D952F0895EE27FF27AA27BB2708C0B5
:10078000A20FB31FE41FF51F220F331F441F551F75
:10079000969587957795679598F37040A9F7009798
:1007A00099F7BD01CF010895AA1BBB1B51E107C0FA
:1007B000AA1FBB1FA617B70710F0A61BB70B881FF1
:1007C000991F5A95A9F780959095BC01CD01089580
:0407D000F894FFCFCB
:00000001FF
