:100000004EC05DC05CC05BC05AC059C058C057C02C
:1000100056C055C054C053C052C051C050C026260F
:10002000272728292B2C2E303335383B3F42464A90
:100030004E52565B5F64696E73787D83888D9298AB
:100040009DA2A8ADB2B7BCC1C6CACFD3D7DBDFE390
:10005000E6EAEDF0F2F5F7F9FAFCFDFEFEFFFFFF30
:10006000FEFEFDFCFAF9F7F5F2F0EDEAE6E3DFDB80
:10007000D7D3CFCAC6C1BCB7B2ADA8A29D98938D45
:1000800088837D78736E69645F5B56524E4A464240
:100090003F3B383533302E2C2B2928272726112497
:1000A0001FBECFE5D2E0DEBFCDBF20E0A0E6B0E0CE
:1000B00001C01D92AD3AB207E1F74AD2A9C4A0CF60
:1000C000C198B99A0895B998C198089586B3817076
:1000D000089586B383FB882780F90895FADF90910D
:1000E0006100981305C0109260008091610008952E
:1000F000909160009F5F909360009530B0F3809383
:100100006100F1CFF89488E198E00FB6F894A895D3
:1001100081BD0FBE91BDFFCFC29A2FEF81EE94E05B
:10012000215080409040E1F700C00000C29808953F
:10013000C4982FEF81EE94E0215080409040E1F789
:1001400000C00000C49A0895EF92FF920F931F938E
:10015000CF93DF93E82EF62E81E090E03FD4C82FB6
:1001600090E080E03BD4853A11F4CA3F28F065EA7C
:1001700090E080E03BD4C0E0D0E021968E01000FFB
:10018000111F6E2DC80132D46F2DC80101962ED4D7
:10019000CE016AEF70E00FD4682F81E090E0DF912C
:1001A000CF911F910F91FF90EF9020C4CF93DF93D9
:1001B00090DFC8E7D0E0811104C080E0DF91CF91EB
:1001C000089587DF8823C9F38FE19EE40197F1F753
:1001D00000C00000A8952197A1F781E0EFCFCF9351
:1001E000C82F77DF2091630030916400882361F08D
:1001F00020364AEE340730F42C0F311D3093640062
:1002000020936300CF910895C901CC978C3192401F
:1002100068F480916200811109C081E080936200DE
:10022000C9016AE070E0B3D387E08EDF109264000A
:1002300010926300E7CFCF93DF93E82FF0E0CF0178
:1002400069EE70E093D3CFEFD0E0BE01A0D3262FAC
:10025000CF0162E370E08AD3BE0199D3A5E6B0E096
:10026000FD01208321836283339680E0ED3AF80715
:10027000C1F73FB7F89498B3926028B32D7FB99A2D
:1002800080E0AD3AB80751F43FBF8FEE90E00197A0
:10029000F1F700C00000DF91CF9108958D9148E003
:1002A00098BB000000C087FF28BB880F00C000C0BB
:1002B00000C028BB000000C04A9591F7E1CFCF9362
:1002C000DF93C82FD62FC03421F48FEFDF91CF9169
:1002D000B2CFEC2FEF77F0E0E25EFF4F8491ABDF1F
:1002E0008D2F815028F4A895C03448F4CF5FEBCF10
:1002F000EFE9FFE03197F1F700C00000F2CFC15005
:10030000E2CF2F923F924F925F926F927F928F92A5
:100310009F92AF92BF92CF92DF92EF92FF920F9394
:100320001F93CF93DF934B015C01342ECFDE282E39
:10033000412C512C320110E000E0C12CD12C76016F
:10034000C0E4CCDED82F8823C1F068E08C2FB7DF63
:10035000D1E08D2FDF91CF911F910F91FF90EF9002
:10036000DF90CF90BF90AF909F908F907F906F90D5
:100370005F904F903F902F900895EC2FF0E0E25E59
:10038000FF4F849158DF2FEF8FE891E0215080409C
:100390009040E1F700C00000A89520E2C20ED11CF9
:1003A000E11CF11C80E2480E511C611C711CC81438
:1003B000D904EA04FB0468F689DED82F8823F1F01B
:1003C000005E1F4F083893E1190708F09BDE3320C9
:1003D00041F1211017C028ECC2162FEAD206E10421
:1003E000F104F8F088EB48168BE0580661047104BC
:1003F00048F092DE412C512C320113C010E000E095
:10040000332079F020E9C2162FE5D20621E0E2067A
:10041000F10438F090E3491695E759066104710438
:1004200040F7CF5FCF772D2E8CCFEF92FF921F93A7
:10043000CF93DF93182F882321F060E083E084DEE0
:10044000C29AD0E0C0E030E8E32EF12CC7018C1B4B
:100450009D0BBE018BD224E0969587952A95E1F7F6
:10046000EADE2FEF89EF90E0215080409040E1F7E5
:1004700000C00000A895112321F0C530D10509F472
:10048000C2982196C034D10509F78FEFD4DECEEFA4
:100490008C2FD1DE8FE59DE60197F1F700C00000BB
:1004A000A895C150C63DA1F7C8ED8C2FC4DE8FE7DB
:1004B0009BEB0197F1F700C00000A895CF5FA9F76B
:1004C0008FEFDF91CF911F91FF90EF90B4CECF933C
:1004D000DF93CEEF8C2FAFDE8FE99CE80197F1F729
:1004E00000C00000A89589E07ADEC150C53E91F7B2
:1004F000C7EE8C2FA0DE8FEB9DE50197F1F700C0D2
:100500000000A89586E06BDECF5F99F78FEF93DE52
:10051000D0E0C0E0CE01BE0129D224E096958795B7
:100520002A95E1F7809587DE9FEF29EF80E09150D3
:1005300020408040E1F700C00000A89584E14FDE34
:100540002196C034D10531F780E0DF91CF9173CE91
:1005500064B714BE88E199E20FB6F894A89581BDFE
:100560000FBE91BD81E0F0DD2FEF80E792E02150DA
:1005700080409040E1F700C00000A895AADD80937C
:10058000610010926000B39B7CC084E187BB18BA05
:10059000EFEFFDE329E4E150F0402040E1F700C037
:1005A0000000A89560E084E0CFDD10E000E08EDD83
:1005B000C82F8111E1C0EFEFF0E722E0E150F040F9
:1005C0002040E1F700C00000A89580DD882309F4F1
:1005D000E6C010E000E07ADD882309F4F7C0003DB2
:1005E000F7E01F0709F0E4C0C49A70DD982EB12C23
:1005F000A12CC12CD12C760110E000E06FDD81111F
:10060000EAC081E0C498882381F25ADD60E085E089
:100610009BDD10926400109263001092620000E46F
:1006200010E0EC2FF0E0E25EFF4F849104DE9FEFDC
:10063000EFE8F1E09150E040F040E1F700C0000049
:10064000A89580E2CCDDCF5FCF770150110949F743
:1006500060E28C2F34DE3BDF60E08AE075DDF12C58
:10066000E12C10E000E080916200811173C1F8E894
:10067000EF16F3E1FF0609F053C160E088E064DDA6
:100680001BC086E187BB18BA1BDD80E0D4DD8FEF8D
:100690009DE3E9E481509040E040E1F700C00000B4
:1006A000A89580E0C2DE40E060E97FE581E090E06F
:1006B00028DE811124C00BDF60E082E045DD10E020
:1006C00000E004DD81111DC0EFEFF0E722E0E15012
:1006D000F0402040E1F700C00000A89508EC10E0D1
:1006E000F5DC8823F9F010E000E0F0DC8823B9F1B4
:1006F000043FF1E01F0731F559DD8823A9F1E3DC60
:1007000051CF54DD8111FBCF8FE19EE40197F1F7CA
:1007100000C00000A8950F5F1F4F003D97E019072C
:1007200081F6F0DC43DD8111EACF8FE19EE4019791
:10073000F1F700C00000A8950150110989F680E08A
:100740007ADDCCCF33DD8111DACFEFE1FEE43197F2
:10075000F1F700C00000A8950B5F1F4FC6CF043F04
:10076000114009F0BBCFC8CF81E05FDE41E060EE11
:1007700073E984E090E09CCFB1DC882309F461C088
:100780008FE19EE40197F1F700C00000A8950F5F8C
:100790001F4F003D97E0190709F009CFC2CF9EDC3B
:1007A000882309F44EC08FE19EE40197F1F70ACF48
:1007B00095DC882309F445C0EFE1FEE43197F1F7B9
:1007C00000C00000A8950B5F1F4F05CF003D1740EC
:1007D00009F0FBCE09CF8FEF90E7E2E08150904027
:1007E000E040E1F700C00000A895F2E3CF0ED11C75
:1007F000E11CF11C27E5A21622E0B20601F166DC3D
:10080000D82F882351F00E5C1F4F083883E118075A
:1008100008F087CF911003C009C010E000E090E11C
:10082000C91697E2D906E104F10420F081DCC12C5D
:10083000D12C7601EFEFAE1ABE0A9D2EDFCE80E0FE
:10084000E1CE3EDC60E086E07FDCB12CA12CC12C47
:10085000D12C7601C0E0EC2FF0E0E25EFF4F8491F6
:10086000EADCFFEF2FE881E0F15020408040E1F723
:1008700000C00000A89590E2C90ED11CE11CF11C3B
:10088000CF5FCF7723DC882379F0E0E2AE0EB11C96
:10089000F8E8AF16F3E1BF0608F043CF1ADC88236F
:1008A000A9F110E000E01CC0B12CA12CF7CFEC2F77
:1008B000F0E0E25EFF4F8491BEDC2FEF8FE891E025
:1008C000215080409040E1F700C00000A895005EF4
:1008D0001F4FE0E2CE0ED11CE11CF11CCF5FCF77A1
:1008E000F8DB882341F00036F2E01F0701F768E0EB
:1008F0008C2FE5DC04CF083522E01207C0F70C335B
:10090000110520F060E28C2FDADCD5CE80ECC81621
:1009100084EDD80681E0E806F10408F49CCFF2CF1C
:100920008FE19EE40197F1F700C00000A89585E0F3
:1009300056DCCCDB882359F00B5F1F4F083893E15E
:10094000190708F0EECEEFEFEE1AFE0A8CCE10E09B
:1009500000E0F9CF80E991E0EFE1FEE43197F1F7B3
:1009600000C00000A8950197B9F7A6CE002455272E
:1009700004C0080E591F880F991F009729F076951B
:100980006795B8F37105B9F7802D952F0895AA1BC7
:10099000BB1B51E107C0AA1FBB1FA617B70710F06A
:1009A000A61BB70B881F991F5A95A9F7809590959C
:1009B000BC01CD01089597FB072E16F4009406D0D4
:1009C00077FD08D0E4DF07FC05D03EF490958195D3
:1009D0009F4F0895709561957F4F0895E199FECFDF
:1009E0009FBB8EBBE09A99278DB30895262FE1997E
:1009F000FECF9FBB8EBBE09A01970DB2021639F075
:100A00001CBA2DBB0FB6F894E29AE19A0FBE089576
:040A1000F894FFCF88
:00000001FF
