:100000000EC01DC01CC01BC01AC019C018C017C02C
:1000100016C015C014C013C012C011C010C01124E6
:100020001FBECFE5D2E0DEBFCDBF20E0A0E6B0E04E
:1000300001C01D92AA3AB207E1F79FD159C3E0CFA0
:10004000C198B99A0895B998C198089586B38170F6
:10005000089586B383FB882780F9909161009813F7
:1000600005C0109260008091610008959091600039
:100070009F5F909360009530B0F380936100F1CF63
:10008000F89488E198E00FB6F894A89581BD0FBE6A
:1000900091BDFFCFC29A2FEF81EE94E021508040B6
:1000A0009040E1F700C00000C2980895C4982FEF77
:1000B00081EE94E0215080409040E1F700C00000C4
:1000C000C49A0895E2E6F0E0DF018D9390E0AA3A49
:1000D000B907D9F73FB7F89498B3926028B32D7F4A
:1000E000B99A80E0EA3AF80741F43FBF8FEE90E01A
:1000F0000197F1F700C000000895819148E098BB96
:10010000000000C087FF28BB880F00C000C000C0EF
:1001100028BB000000C04A9591F7E3CFEF92FF9211
:100120001F93CF93DF93182F8111C29AD0E0C0E0C4
:1001300030E8E32EF12CC7018C1B9D0BBE01AED223
:1001400024E0969587952A95E1F7BCDF2FEF89EF9C
:1001500090E0215080409040E1F700C00000A89559
:10016000112321F0C530D10509F4C2982196C0347D
:10017000D10509F78FEFA6DFCEEF8C2FA3DF8FE538
:100180009DE60197F1F700C00000A895C150C63D5B
:10019000A1F7C8ED8C2F96DF8FE79BEB0197F1F766
:1001A00000C00000A895CF5FA9F78FEFDF91CF9136
:1001B0001F91FF90EF9086CFCF93DF93CEEF8C2FE0
:1001C00081DF8FE99CE80197F1F700C00000A89556
:1001D000C150C53EA1F7C7EE8C2F74DF8FEB9DE5B4
:1001E0000197F1F700C00000A895CF5FA9F78FEF46
:1001F00069DFD0E0C0E0CE01BE0150D224E0969588
:1002000087952A95E1F780955DDF9FEF29EF80E0E4
:10021000915020408040E1F700C00000A895219651
:10022000C034D10541F780E0DF91CF914BCF2F92C1
:100230003F924F925F926F927F928F929F92AF9276
:10024000BF92CF92DF92EF92FF920F931F93CF93C3
:10025000DF932B013C01042FF9DE382EC12CD12C69
:100260007601D0E0C0E0812C912C540130E4232EA3
:10027000F0DE182F8823B9F08FEF24DF11E0812FF3
:10028000DF91CF911F910F91FF90EF90DF90CF9072
:10029000BF90AF909F908F907F906F905F904F90A6
:1002A0003F902F900895622D70E080E890E0861BCB
:1002B000970BF4D1BC0190E080E02FEE30E040E0FD
:1002C00050E0FDD1DC01CB012CE0B695A7959795C8
:1002D00087952A95D1F7805FF5DE8FEF99EF01972B
:1002E000F1F700C00000A89590E1890E911CA11CB7
:1002F000B11C80E1C80ED11CE11CF11C84149504D2
:10030000A604B70408F0BBCFA1DE182F8823E9F0BC
:100310006096C83893E1D90708F0B2DE002341F1B6
:10032000311017C088EC88168FEA9806A104B10432
:10033000F8F098EBC9169BE0D906E104F10448F007
:10034000A9DEC12CD12C760113C0D0E0C0E000237F
:1003500079F090E989169FE5990691E0A906B10424
:1003600038F080E3C81685E7D806E104F10440F7C9
:100370002394E89427F8312E7BCF88E199E20FB6D9
:10038000F894A89581BD0FBE91BD2FEF80E792E054
:10039000215080409040E1F700C00000A89586B34E
:1003A00083FB882780F98093610010926000B39BE3
:1003B0007EC084E187BB18BA2FEF8DE399E421500A
:1003C00080409040E1F700C00000A89500E810E0F0
:1003D000D0E0C0E03BDE982E8111D5C02FEF80E742
:1003E00092E0215080409040E1F700C00000A895C5
:1003F0002DDE882309F4D9C0D0E0C0E027DE8823B1
:1004000009F4E9C0C03D97E0D90709F0D7C0C49A04
:100410001DDE782EB12CA12CC12CD12C7601D0E080
:10042000C0E017DE8111DCC081E0C498882381F22E
:1004300007DE40E4E42EF12CC0E06C2F70E0C80130
:10044000861B970B2BD1BC0190E080E02FEE30E0B3
:1004500040E050E034D1DC01CB013CE0B695A795FB
:10046000979587953A95D1F7805F2CDE8FEF99EFBE
:100470000197F1F700C00000A895CF5FCF7791E01A
:10048000E91AF108D1F6C03409F0E2C08FEF1ADEA4
:1004900093DE992049F180E041DE40E060E97FE5AC
:1004A00081E090E0C4DE8823F1F0CDDD91CF86E1DC
:1004B00087BB18BAC5DD80E005DE2FEF8DE399E438
:1004C000215080409040E1F700C00000A89580E0F6
:1004D00025DE40E060E97FE581E090E0A8DE88234A
:1004E00011F0B1DD73CF68DED0E0C0E0AFDD811187
:1004F00021C02FEF80E792E0215080409040E1F74B
:1005000000C00000A895A2DD882321F1D0E0C0E062
:100510009DDD882399F1C43F91E0D90719F599DD54
:100520008111DFCF81E0FADD41E060EE73E984E024
:1005300090E0D4CF8EDD8111D4CF8FE19EE401977E
:10054000F1F700C00000A8952196C03D97E0D907BB
:1005500069F696DD7EDD8111C4CF8FE19EE40197BF
:10056000F1F7CECF76DD8111BCCF8FE19EE401970C
:10057000F1F700C00000A8952596CACFC43FD1402E
:1005800009F0C1CFCCCF65DD882309F45EC08FE1CF
:100590009EE40197F1F700C00000A8952196C03DA8
:1005A00097E0D90709F016CFD4CF53DD882309F49B
:1005B0004CC08FE19EE40197F1F717CF4ADD882305
:1005C00009F443C08FE19EE40197F1F700C00000F9
:1005D000A895259613CFC03DD74009F009CF17CF76
:1005E0008FEF90E722E0815090402040E1F700C07B
:1005F0000000A89582E3C80ED11CE11CF11C97E510
:10060000A91692E0B906F9F021DD882E882349F079
:10061000E296C83823E1D20708F09BCF711003C0DF
:1006200009C0D0E0C0E080E1C81687E2D806E10446
:10063000F10420F03BDDC12CD12C76019FEFA91AEB
:10064000B90A782CEECE80E0F0CE99249394F0CEC7
:100650006C2F70E0C801861B970B20D0BC0190E086
:1006600080E02FEE30E040E050E029D0DC01CB010B
:100670002CE0B695A795979587952A95D1F7805F39
:1006800021DD8FEF99EF0197F1F700C00000A895E9
:10069000C03410F4CF5FF7CEC150F5CE00245527FB
:1006A00004C0080E591F880F991F009729F07695EE
:1006B0006795B8F37105B9F7802D952F0895EE274A
:1006C000FF27AA27BB2708C0A20FB31FE41FF51FEF
:1006D000220F331F441F551F969587957795679571
:1006E00098F37040A9F7009799F7BD01CF010895DD
:0406F000F894FFCFAC
:00000001FF
